{
  "contractName": "SudokuMarketplace",
  "abi": [
    {
      "anonymous": false,
      "inputs": [
        {
          "indexed": true,
          "internalType": "address",
          "name": "previousOwner",
          "type": "address"
        },
        {
          "indexed": true,
          "internalType": "address",
          "name": "newOwner",
          "type": "address"
        }
      ],
      "name": "OwnershipTransferred",
      "type": "event"
    },
    {
      "anonymous": false,
      "inputs": [
        {
          "indexed": false,
          "internalType": "address",
          "name": "account",
          "type": "address"
        }
      ],
      "name": "Paused",
      "type": "event"
    },
    {
      "anonymous": false,
      "inputs": [
        {
          "indexed": false,
          "internalType": "address",
          "name": "account",
          "type": "address"
        }
      ],
      "name": "Unpaused",
      "type": "event"
    },
    {
      "anonymous": false,
      "inputs": [
        {
          "indexed": false,
          "internalType": "address",
          "name": "_solver",
          "type": "address"
        },
        {
          "indexed": false,
          "internalType": "address",
          "name": "_proposer",
          "type": "address"
        },
        {
          "indexed": false,
          "internalType": "uint256",
          "name": "_index",
          "type": "uint256"
        }
      ],
      "name": "solutionSubmitted",
      "type": "event"
    },
    {
      "anonymous": false,
      "inputs": [
        {
          "indexed": false,
          "internalType": "address",
          "name": "_proposer",
          "type": "address"
        },
        {
          "indexed": false,
          "internalType": "uint256",
          "name": "_index",
          "type": "uint256"
        }
      ],
      "name": "sudokuCreated",
      "type": "event"
    },
    {
      "anonymous": false,
      "inputs": [
        {
          "indexed": false,
          "internalType": "address",
          "name": "_solver",
          "type": "address"
        },
        {
          "indexed": false,
          "internalType": "address",
          "name": "_proposer",
          "type": "address"
        },
        {
          "indexed": false,
          "internalType": "uint256",
          "name": "_index",
          "type": "uint256"
        },
        {
          "indexed": false,
          "internalType": "uint256",
          "name": "_value",
          "type": "uint256"
        }
      ],
      "name": "sudokuSolved",
      "type": "event"
    },
    {
      "stateMutability": "payable",
      "type": "fallback",
      "payable": true
    },
    {
      "inputs": [],
      "name": "deadline",
      "outputs": [
        {
          "internalType": "uint256",
          "name": "",
          "type": "uint256"
        }
      ],
      "stateMutability": "view",
      "type": "function",
      "constant": true
    },
    {
      "inputs": [],
      "name": "fee",
      "outputs": [
        {
          "internalType": "uint256",
          "name": "",
          "type": "uint256"
        }
      ],
      "stateMutability": "view",
      "type": "function",
      "constant": true
    },
    {
      "inputs": [],
      "name": "owner",
      "outputs": [
        {
          "internalType": "address",
          "name": "",
          "type": "address"
        }
      ],
      "stateMutability": "view",
      "type": "function",
      "constant": true
    },
    {
      "inputs": [],
      "name": "paused",
      "outputs": [
        {
          "internalType": "bool",
          "name": "",
          "type": "bool"
        }
      ],
      "stateMutability": "view",
      "type": "function",
      "constant": true
    },
    {
      "inputs": [],
      "name": "renounceOwnership",
      "outputs": [],
      "stateMutability": "nonpayable",
      "type": "function"
    },
    {
      "inputs": [
        {
          "internalType": "address",
          "name": "",
          "type": "address"
        },
        {
          "internalType": "uint256",
          "name": "",
          "type": "uint256"
        }
      ],
      "name": "sudokus",
      "outputs": [
        {
          "internalType": "uint256",
          "name": "creationTime",
          "type": "uint256"
        },
        {
          "internalType": "bool",
          "name": "solved",
          "type": "bool"
        },
        {
          "internalType": "address payable",
          "name": "solver",
          "type": "address"
        },
        {
          "internalType": "uint256",
          "name": "value",
          "type": "uint256"
        }
      ],
      "stateMutability": "view",
      "type": "function",
      "constant": true
    },
    {
      "inputs": [
        {
          "internalType": "address",
          "name": "newOwner",
          "type": "address"
        }
      ],
      "name": "transferOwnership",
      "outputs": [],
      "stateMutability": "nonpayable",
      "type": "function"
    },
    {
      "stateMutability": "payable",
      "type": "receive",
      "payable": true
    },
    {
      "inputs": [],
      "name": "togglePause",
      "outputs": [],
      "stateMutability": "nonpayable",
      "type": "function"
    },
    {
      "inputs": [
        {
          "internalType": "uint256[9][9]",
          "name": "_grid",
          "type": "uint256[9][9]"
        }
      ],
      "name": "validDigitsProblem",
      "outputs": [
        {
          "internalType": "bool",
          "name": "valid",
          "type": "bool"
        }
      ],
      "stateMutability": "pure",
      "type": "function",
      "constant": true
    },
    {
      "inputs": [
        {
          "internalType": "uint256[9][9]",
          "name": "_grid",
          "type": "uint256[9][9]"
        }
      ],
      "name": "validDigitsSolution",
      "outputs": [
        {
          "internalType": "bool",
          "name": "valid",
          "type": "bool"
        }
      ],
      "stateMutability": "pure",
      "type": "function",
      "constant": true
    },
    {
      "inputs": [
        {
          "internalType": "uint256[9][9]",
          "name": "_grid",
          "type": "uint256[9][9]"
        }
      ],
      "name": "validSudoku",
      "outputs": [
        {
          "internalType": "bool",
          "name": "valid",
          "type": "bool"
        }
      ],
      "stateMutability": "pure",
      "type": "function",
      "constant": true
    },
    {
      "inputs": [
        {
          "internalType": "uint256[9][9]",
          "name": "_grid",
          "type": "uint256[9][9]"
        }
      ],
      "name": "submitProblem",
      "outputs": [
        {
          "internalType": "uint256",
          "name": "_id",
          "type": "uint256"
        }
      ],
      "stateMutability": "payable",
      "type": "function",
      "payable": true
    },
    {
      "inputs": [
        {
          "internalType": "uint256[9][9]",
          "name": "_problem",
          "type": "uint256[9][9]"
        },
        {
          "internalType": "uint256[9][9]",
          "name": "_solution",
          "type": "uint256[9][9]"
        }
      ],
      "name": "rightPuzzle",
      "outputs": [
        {
          "internalType": "bool",
          "name": "valid",
          "type": "bool"
        }
      ],
      "stateMutability": "pure",
      "type": "function",
      "constant": true
    },
    {
      "inputs": [
        {
          "internalType": "address",
          "name": "proposer",
          "type": "address"
        },
        {
          "internalType": "uint256",
          "name": "index",
          "type": "uint256"
        },
        {
          "internalType": "uint256[9][9]",
          "name": "_solution",
          "type": "uint256[9][9]"
        }
      ],
      "name": "submitSolution",
      "outputs": [],
      "stateMutability": "payable",
      "type": "function",
      "payable": true
    },
    {
      "inputs": [
        {
          "internalType": "uint256",
          "name": "index",
          "type": "uint256"
        }
      ],
      "name": "withdrawValue",
      "outputs": [],
      "stateMutability": "nonpayable",
      "type": "function"
    }
  ],
  "bytecode": "0x6080604052610258600155633b9aca006002553480156200001f57600080fd5b5062000040620000346200006060201b60201c565b6200006860201b60201c565b60008060146101000a81548160ff0219169083151502179055506200012c565b600033905090565b60008060009054906101000a900473ffffffffffffffffffffffffffffffffffffffff169050816000806101000a81548173ffffffffffffffffffffffffffffffffffffffff021916908373ffffffffffffffffffffffffffffffffffffffff1602179055508173ffffffffffffffffffffffffffffffffffffffff168173ffffffffffffffffffffffffffffffffffffffff167f8be0079c531659141344cd1fd0a4f28419497f9722a3daafe3b4186f6b6457e060405160405180910390a35050565b612619806200013c6000396000f3fe6080604052600436106100ec5760003560e01c80638da5cb5b1161008a578063c4ae316811610059578063c4ae316814610309578063db96136a14610320578063ddca3f431461035d578063f2fde38b14610388576100f3565b80638da5cb5b1461023857806391cdd9f014610263578063b030b7611461028c578063b182178e146102cc576100f3565b80635c975abb116100c65780635c975abb1461017c57806362929ab2146101a75780636e880da2146101e4578063715018a614610221576100f3565b806307e80e6014610105578063147d748c1461012157806329dcb0cf14610151576100f3565b366100f357005b6000803690501461010357600080fd5b005b61011f600480360381019061011a9190611d66565b6103b1565b005b61013b60048036038101906101369190611dba565b6109b9565b6040516101489190611df7565b60405180910390f35b34801561015d57600080fd5b50610166610c68565b6040516101739190611df7565b60405180910390f35b34801561018857600080fd5b50610191610c6e565b60405161019e9190611e2d565b60405180910390f35b3480156101b357600080fd5b506101ce60048036038101906101c99190611dba565b610c84565b6040516101db9190611e2d565b60405180910390f35b3480156101f057600080fd5b5061020b6004803603810190610206919061203d565b610d15565b6040516102189190611e2d565b60405180910390f35b34801561022d57600080fd5b50610236610e10565b005b34801561024457600080fd5b5061024d610e98565b60405161025a919061208e565b60405180910390f35b34801561026f57600080fd5b5061028a600480360381019061028591906120a9565b610ec1565b005b34801561029857600080fd5b506102b360048036038101906102ae91906120d6565b6112e0565b6040516102c39493929190612137565b60405180910390f35b3480156102d857600080fd5b506102f360048036038101906102ee9190611dba565b61135a565b6040516103009190611e2d565b60405180910390f35b34801561031557600080fd5b5061031e611424565b005b34801561032c57600080fd5b5061034760048036038101906103429190611dba565b6114c5565b6040516103549190611e2d565b60405180910390f35b34801561036957600080fd5b50610372611887565b60405161037f9190611df7565b60405180910390f35b34801561039457600080fd5b506103af60048036038101906103aa919061217c565b61188d565b005b828260001515600360008473ffffffffffffffffffffffffffffffffffffffff1673ffffffffffffffffffffffffffffffffffffffff1681526020019081526020016000208281548110610408576104076121a9565b5b906000526020600020906054020160520160009054906101000a900460ff1615151480156104a55750600154600360008473ffffffffffffffffffffffffffffffffffffffff1673ffffffffffffffffffffffffffffffffffffffff1681526020019081526020016000208281548110610485576104846121a9565b5b9060005260206000209060540201605101546104a19190612207565b4211155b6104ae57600080fd5b60025434146104bc57600080fd5b826104c68161135a565b6104cf57600080fd5b7f18b3c5f4b2c4dc3623cfbfc63f03431c1efe76bc7b2b49ecbcebb6510b90c6b13387876040516105029392919061225d565b60405180910390a134600360008873ffffffffffffffffffffffffffffffffffffffff1673ffffffffffffffffffffffffffffffffffffffff168152602001908152602001600020868154811061055c5761055b6121a9565b5b9060005260206000209060540201605301600082825461057c9190612207565b92505081905550610662600360008873ffffffffffffffffffffffffffffffffffffffff1673ffffffffffffffffffffffffffffffffffffffff16815260200190815260200160002086815481106105d7576105d66121a9565b5b9060005260206000209060540201600001600980602002604051908101604052809291906000905b8282101561065857838260090201600980602002604051908101604052809291908260098015610644576020028201915b815481526020019060010190808311610630575b5050505050815260200190600101906105ff565b5050505085610d15565b80156106735750610672846114c5565b5b156109b1576001600360008873ffffffffffffffffffffffffffffffffffffffff1673ffffffffffffffffffffffffffffffffffffffff16815260200190815260200160002086815481106106cb576106ca6121a9565b5b906000526020600020906054020160520160006101000a81548160ff02191690831515021790555033600360008873ffffffffffffffffffffffffffffffffffffffff1673ffffffffffffffffffffffffffffffffffffffff1681526020019081526020016000208681548110610745576107446121a9565b5b906000526020600020906054020160520160016101000a81548173ffffffffffffffffffffffffffffffffffffffff021916908373ffffffffffffffffffffffffffffffffffffffff1602179055507fd5ef426a455bd587f9e0860ce2115ec557a965c6c1f70517bab3055094436b97338787600360008b73ffffffffffffffffffffffffffffffffffffffff1673ffffffffffffffffffffffffffffffffffffffff1681526020019081526020016000208981548110610809576108086121a9565b5b90600052602060002090605402016053015460405161082b9493929190612294565b60405180910390a16000600360008873ffffffffffffffffffffffffffffffffffffffff1673ffffffffffffffffffffffffffffffffffffffff1681526020019081526020016000208681548110610886576108856121a9565b5b90600052602060002090605402016053015490506000600360008973ffffffffffffffffffffffffffffffffffffffff1673ffffffffffffffffffffffffffffffffffffffff16815260200190815260200160002087815481106108ed576108ec6121a9565b5b90600052602060002090605402016053018190555060003373ffffffffffffffffffffffffffffffffffffffff16826040516109289061230a565b60006040518083038185875af1925050503d8060008114610965576040519150601f19603f3d011682016040523d82523d6000602084013e61096a565b606091505b50509050806109ae576040517f08c379a00000000000000000000000000000000000000000000000000000000081526004016109a59061237c565b60405180910390fd5b50505b505050505050565b600060025434146109c957600080fd5b816109d381610c84565b6109dc57600080fd5b6109e5816114c5565b6109ee57600080fd5b6109f6610c6e565b15610a36576040517f08c379a0000000000000000000000000000000000000000000000000000000008152600401610a2d906123e8565b60405180910390fd5b600360003373ffffffffffffffffffffffffffffffffffffffff1673ffffffffffffffffffffffffffffffffffffffff168152602001908152602001600020805490509150600360003373ffffffffffffffffffffffffffffffffffffffff1673ffffffffffffffffffffffffffffffffffffffff1681526020019081526020016000206040518060a0016040528085600980602002604051908101604052809291906000905b82821015610b3257838261012002016009806020026040519081016040528092919082600960200280828437600081840152601f19601f82011690508083019250505050505081526020019060010190610add565b505050508152602001428152602001600015158152602001600073ffffffffffffffffffffffffffffffffffffffff168152602001348152509080600181540180825580915050600190039060005260206000209060540201600090919091909150600082015181600001906009610bab929190611b94565b506020820151816051015560408201518160520160006101000a81548160ff02191690831515021790555060608201518160520160016101000a81548173ffffffffffffffffffffffffffffffffffffffff021916908373ffffffffffffffffffffffffffffffffffffffff1602179055506080820151816053015550507f5f54b03159e233d23a1736922452871323ce93fc39e31a1ee9e551263d7c39323383604051610c5a929190612408565b60405180910390a150919050565b60015481565b60008060149054906101000a900460ff16905090565b600080600090505b6009811015610d0a5760005b6009811015610cf6576009848360098110610cb657610cb56121a9565b5b61012002018260098110610ccd57610ccc6121a9565b5b60200201351115610ce357600092505050610d10565b8080610cee90612431565b915050610c98565b508080610d0290612431565b915050610c8c565b50600190505b919050565b600080600090505b6009811015610e045760005b6009811015610df0576000858360098110610d4757610d466121a9565b5b60200201518260098110610d5e57610d5d6121a9565b5b602002015114158015610dcd5750848260098110610d7f57610d7e6121a9565b5b60200201518160098110610d9657610d956121a9565b5b6020020151848360098110610dae57610dad6121a9565b5b61012002018260098110610dc557610dc46121a9565b5b602002013514155b15610ddd57600092505050610e0a565b8080610de890612431565b915050610d29565b508080610dfc90612431565b915050610d1d565b50600190505b92915050565b610e18611984565b73ffffffffffffffffffffffffffffffffffffffff16610e36610e98565b73ffffffffffffffffffffffffffffffffffffffff1614610e8c576040517f08c379a0000000000000000000000000000000000000000000000000000000008152600401610e83906124c5565b60405180910390fd5b610e96600061198c565b565b60008060009054906101000a900473ffffffffffffffffffffffffffffffffffffffff16905090565b338160001515600360008473ffffffffffffffffffffffffffffffffffffffff1673ffffffffffffffffffffffffffffffffffffffff1681526020019081526020016000208281548110610f1857610f176121a9565b5b906000526020600020906054020160520160009054906101000a900460ff161515148015610fb45750600154600360008473ffffffffffffffffffffffffffffffffffffffff1673ffffffffffffffffffffffffffffffffffffffff1681526020019081526020016000208281548110610f9557610f946121a9565b5b906000526020600020906054020160510154610fb19190612207565b42115b610fbd57600080fd5b610fc5610c6e565b15611005576040517f08c379a0000000000000000000000000000000000000000000000000000000008152600401610ffc906123e8565b60405180910390fd5b6000600360003373ffffffffffffffffffffffffffffffffffffffff1673ffffffffffffffffffffffffffffffffffffffff1681526020019081526020016000208481548110611058576110576121a9565b5b90600052602060002090605402016053015490506000600360003373ffffffffffffffffffffffffffffffffffffffff1673ffffffffffffffffffffffffffffffffffffffff16815260200190815260200160002085815481106110bf576110be6121a9565b5b9060005260206000209060540201605301819055506001600360003373ffffffffffffffffffffffffffffffffffffffff1673ffffffffffffffffffffffffffffffffffffffff1681526020019081526020016000208581548110611127576111266121a9565b5b906000526020600020906054020160520160006101000a81548160ff02191690831515021790555033600360003373ffffffffffffffffffffffffffffffffffffffff1673ffffffffffffffffffffffffffffffffffffffff16815260200190815260200160002085815481106111a1576111a06121a9565b5b906000526020600020906054020160520160016101000a81548173ffffffffffffffffffffffffffffffffffffffff021916908373ffffffffffffffffffffffffffffffffffffffff1602179055507fd5ef426a455bd587f9e0860ce2115ec557a965c6c1f70517bab3055094436b97333386846040516112259493929190612294565b60405180910390a160003373ffffffffffffffffffffffffffffffffffffffff16826040516112539061230a565b60006040518083038185875af1925050503d8060008114611290576040519150601f19603f3d011682016040523d82523d6000602084013e611295565b606091505b50509050806112d9576040517f08c379a00000000000000000000000000000000000000000000000000000000081526004016112d09061237c565b60405180910390fd5b5050505050565b600360205281600052604060002081815481106112fc57600080fd5b9060005260206000209060540201600091509150508060510154908060520160009054906101000a900460ff16908060520160019054906101000a900473ffffffffffffffffffffffffffffffffffffffff16908060530154905084565b600080600090505b60098110156114195760005b600981101561140557600084836009811061138c5761138b6121a9565b5b610120020182600981106113a3576113a26121a9565b5b602002013514806113e2575060098483600981106113c4576113c36121a9565b5b610120020182600981106113db576113da6121a9565b5b6020020135115b156113f25760009250505061141f565b80806113fd90612431565b91505061136e565b50808061141190612431565b915050611362565b50600190505b919050565b61142c611984565b73ffffffffffffffffffffffffffffffffffffffff1661144a610e98565b73ffffffffffffffffffffffffffffffffffffffff16146114a0576040517f08c379a0000000000000000000000000000000000000000000000000000000008152600401611497906124c5565b60405180910390fd5b6114a8610c6e565b156114ba576114b5611a50565b6114c3565b6114c2611af1565b5b565b60006114cf611be4565b60005b60098110156115e5576000600190505b600a8110156115225760008382600a8110611500576114ff6121a9565b5b602002019015159081151581525050808061151a90612431565b9150506114e2565b5060005b60098110156115d1576000858360098110611544576115436121a9565b5b6101200201826009811061155b5761155a6121a9565b5b602002013590506000811415801561158757508381600a8110611581576115806121a9565b5b60200201515b15611599576000945050505050611882565b60018482600a81106115ae576115ad6121a9565b5b6020020190151590811515815250505080806115c990612431565b915050611526565b5080806115dd90612431565b9150506114d2565b5060005b60098110156116fc576000600190505b600a8110156116395760008382600a8110611617576116166121a9565b5b602002019015159081151581525050808061163190612431565b9150506115f9565b5060005b60098110156116e857600085826009811061165b5761165a6121a9565b5b61012002018360098110611672576116716121a9565b5b602002013590506000811415801561169e57508381600a8110611698576116976121a9565b5b60200201515b156116b0576000945050505050611882565b60018482600a81106116c5576116c46121a9565b5b6020020190151590811515815250505080806116e090612431565b91505061163d565b5080806116f490612431565b9150506115e9565b5060005b600781101561187b5760005b6007811015611866576000600190505b600a81101561175c5760008482600a811061173a576117396121a9565b5b602002019015159081151581525050808061175490612431565b91505061171c565b5060005b60038110156118515760005b600381101561183d57600082856117839190612207565b9050600082856117939190612207565b905060008983600981106117aa576117a96121a9565b5b610120020182600981106117c1576117c06121a9565b5b60200201359050600081141580156117ed57508781600a81106117e7576117e66121a9565b5b60200201515b1561180357600098505050505050505050611882565b60018882600a8110611818576118176121a9565b5b602002019015159081151581525050505050808061183590612431565b91505061176c565b50808061184990612431565b915050611760565b5060038161185f9190612207565b905061170c565b506003816118749190612207565b9050611700565b5060019150505b919050565b60025481565b611895611984565b73ffffffffffffffffffffffffffffffffffffffff166118b3610e98565b73ffffffffffffffffffffffffffffffffffffffff1614611909576040517f08c379a0000000000000000000000000000000000000000000000000000000008152600401611900906124c5565b60405180910390fd5b600073ffffffffffffffffffffffffffffffffffffffff168173ffffffffffffffffffffffffffffffffffffffff1603611978576040517f08c379a000000000000000000000000000000000000000000000000000000000815260040161196f90612557565b60405180910390fd5b6119818161198c565b50565b600033905090565b60008060009054906101000a900473ffffffffffffffffffffffffffffffffffffffff169050816000806101000a81548173ffffffffffffffffffffffffffffffffffffffff021916908373ffffffffffffffffffffffffffffffffffffffff1602179055508173ffffffffffffffffffffffffffffffffffffffff168173ffffffffffffffffffffffffffffffffffffffff167f8be0079c531659141344cd1fd0a4f28419497f9722a3daafe3b4186f6b6457e060405160405180910390a35050565b611a58610c6e565b611a97576040517f08c379a0000000000000000000000000000000000000000000000000000000008152600401611a8e906125c3565b60405180910390fd5b60008060146101000a81548160ff0219169083151502179055507f5db9ee0a495bf2e6ff9c91a7834c1ba4fdd244a5e8aa4e537bd38aeae4b073aa611ada611984565b604051611ae7919061208e565b60405180910390a1565b611af9610c6e565b15611b39576040517f08c379a0000000000000000000000000000000000000000000000000000000008152600401611b30906123e8565b60405180910390fd5b6001600060146101000a81548160ff0219169083151502179055507f62e78cea01bee320cd4e420270b5ea74000d11b0c9f74754ebdbfc544b05a258611b7d611984565b604051611b8a919061208e565b60405180910390a1565b82600980028101928215611bd3579160200282015b82811115611bd257825182906009611bc2929190611c07565b5091602001919060090190611ba9565b5b509050611be09190611c47565b5090565b604051806101400160405280600a90602082028036833780820191505090505090565b8260098101928215611c36579160200282015b82811115611c35578251825591602001919060010190611c1a565b5b509050611c439190611c6b565b5090565b5b80821115611c675760008181611c5e9190611c88565b50600901611c48565b5090565b5b80821115611c84576000816000905550600101611c6c565b5090565b508060090190611c989190611c6b565b50565b6000604051905090565b600080fd5b600073ffffffffffffffffffffffffffffffffffffffff82169050919050565b6000611cd582611caa565b9050919050565b611ce581611cca565b8114611cf057600080fd5b50565b600081359050611d0281611cdc565b92915050565b6000819050919050565b611d1b81611d08565b8114611d2657600080fd5b50565b600081359050611d3881611d12565b92915050565b600080fd5b60008190508261012060090282011115611d6057611d5f611d3e565b5b92915050565b6000806000610a608486031215611d8057611d7f611ca5565b5b6000611d8e86828701611cf3565b9350506020611d9f86828701611d29565b9250506040611db086828701611d43565b9150509250925092565b6000610a208284031215611dd157611dd0611ca5565b5b6000611ddf84828501611d43565b91505092915050565b611df181611d08565b82525050565b6000602082019050611e0c6000830184611de8565b92915050565b60008115159050919050565b611e2781611e12565b82525050565b6000602082019050611e426000830184611e1e565b92915050565b600080fd5b6000601f19601f8301169050919050565b7f4e487b7100000000000000000000000000000000000000000000000000000000600052604160045260246000fd5b611e9682611e4d565b810181811067ffffffffffffffff82111715611eb557611eb4611e5e565b5b80604052505050565b6000611ec8611c9b565b9050611ed48282611e8d565b919050565b600067ffffffffffffffff821115611ef457611ef3611e5e565b5b602082029050919050565b600067ffffffffffffffff821115611f1a57611f19611e5e565b5b602082029050919050565b6000611f38611f3384611eff565b611ebe565b90508060208402830185811115611f5257611f51611d3e565b5b835b81811015611f7b5780611f678882611d29565b845260208401935050602081019050611f54565b5050509392505050565b600082601f830112611f9a57611f99611e48565b5b6009611fa7848285611f25565b91505092915050565b6000611fc3611fbe84611ed9565b611ebe565b9050806101208402830185811115611fde57611fdd611d3e565b5b835b818110156120085780611ff38882611f85565b84526020840193505061012081019050611fe0565b5050509392505050565b600082601f83011261202757612026611e48565b5b6009612034848285611fb0565b91505092915050565b600080611440838503121561205557612054611ca5565b5b600061206385828601612012565b925050610a2061207585828601611d43565b9150509250929050565b61208881611cca565b82525050565b60006020820190506120a3600083018461207f565b92915050565b6000602082840312156120bf576120be611ca5565b5b60006120cd84828501611d29565b91505092915050565b600080604083850312156120ed576120ec611ca5565b5b60006120fb85828601611cf3565b925050602061210c85828601611d29565b9150509250929050565b600061212182611caa565b9050919050565b61213181612116565b82525050565b600060808201905061214c6000830187611de8565b6121596020830186611e1e565b6121666040830185612128565b6121736060830184611de8565b95945050505050565b60006020828403121561219257612191611ca5565b5b60006121a084828501611cf3565b91505092915050565b7f4e487b7100000000000000000000000000000000000000000000000000000000600052603260045260246000fd5b7f4e487b7100000000000000000000000000000000000000000000000000000000600052601160045260246000fd5b600061221282611d08565b915061221d83611d08565b9250827fffffffffffffffffffffffffffffffffffffffffffffffffffffffffffffffff03821115612252576122516121d8565b5b828201905092915050565b6000606082019050612272600083018661207f565b61227f602083018561207f565b61228c6040830184611de8565b949350505050565b60006080820190506122a9600083018761207f565b6122b6602083018661207f565b6122c36040830185611de8565b6122d06060830184611de8565b95945050505050565b600081905092915050565b50565b60006122f46000836122d9565b91506122ff826122e4565b600082019050919050565b6000612315826122e7565b9150819050919050565b600082825260208201905092915050565b7f4661696c656420746f2073656e64204574686572000000000000000000000000600082015250565b600061236660148361231f565b915061237182612330565b602082019050919050565b6000602082019050818103600083015261239581612359565b9050919050565b7f5061757361626c653a2070617573656400000000000000000000000000000000600082015250565b60006123d260108361231f565b91506123dd8261239c565b602082019050919050565b60006020820190508181036000830152612401816123c5565b9050919050565b600060408201905061241d600083018561207f565b61242a6020830184611de8565b9392505050565b600061243c82611d08565b91507fffffffffffffffffffffffffffffffffffffffffffffffffffffffffffffffff820361246e5761246d6121d8565b5b600182019050919050565b7f4f776e61626c653a2063616c6c6572206973206e6f7420746865206f776e6572600082015250565b60006124af60208361231f565b91506124ba82612479565b602082019050919050565b600060208201905081810360008301526124de816124a2565b9050919050565b7f4f776e61626c653a206e6577206f776e657220697320746865207a65726f206160008201527f6464726573730000000000000000000000000000000000000000000000000000602082015250565b600061254160268361231f565b915061254c826124e5565b604082019050919050565b6000602082019050818103600083015261257081612534565b9050919050565b7f5061757361626c653a206e6f7420706175736564000000000000000000000000600082015250565b60006125ad60148361231f565b91506125b882612577565b602082019050919050565b600060208201905081810360008301526125dc816125a0565b905091905056fea264697066735822122025b067dea665d722161e8e9938abc0c50f7d0489e18095c65902fd560cad183f64736f6c634300080e0033",
  "immutableReferences": {},
  "source": "// SPDX-License-Identifier: MIT\r\npragma solidity ^0.8.11;\r\n/**\r\n* @title Sudoku Marketplace\r\n* @author Nassim Dehouche\r\n*/\r\n\r\nimport \"@openzeppelin/contracts/access/Ownable.sol\";\r\nimport \"@openzeppelin/contracts/security/Pausable.sol\";\r\n\r\n\r\ncontract SudokuMarketplace is Ownable, Pausable{ \r\n\r\n/// @dev Toggle pause boolean \r\n    function togglePause() external onlyOwner {\r\n        if (paused()) {_unpause();}\r\n        else _pause();\r\n    }\r\n\r\n\r\n/// @dev Sudoku creation event   \r\nevent sudokuCreated(address _proposer, uint _index);\r\n/// @dev Solution submission event \r\nevent solutionSubmitted(address _solver, address _proposer, uint _index);\r\n/// @dev Sudoku solution event \r\nevent sudokuSolved(address _solver, address _proposer, uint _index, uint _value); \r\n\r\n\r\n/// @notice Time-window to submit a solution from the time a Sudoku grid is created\r\nuint public deadline=600; \r\n/// @notice Fee to be paid by solvers\r\nuint public fee=1000000000; \r\n\r\n/* @notice Test Sudoku: \r\n* [[5,3,4,6,7,8,9,1,2],\r\n* [6,7,2,1,9,5,3,4,8],\r\n* [1,9,8,3,4,2,5,6,7],\r\n* [8,5,9,7,6,1,4,2,3],\r\n* [4,2,6,8,5,3,7,9,1],\r\n* [7,1,3,9,2,4,8,5,6],\r\n* [9,6,1,5,3,7,2,8,4],\r\n* [2,8,7,4,1,9,6,3,5],\r\n* [3,4,5,2,8,6,1,7,9]];\r\n */\r\n\r\n/// @dev The Sudoku structure\r\nstruct Sudoku{ \r\n  uint[9][9] grid;\r\n  uint creationTime;\r\n  bool solved;\r\n  address payable solver;\r\n  uint value;\r\n  }\r\n\r\n/// @dev Mapping proposers with an array of their proposed Sudokus\r\nmapping(address => Sudoku[]) public sudokus; \r\n\r\n/// @dev Receive function\r\nreceive() external payable { \r\n}\r\n\r\n/// @dev Fallback function. We check data length in fallback functions as a best practice\r\nfallback() external payable {\r\nrequire(msg.data.length == 0); \r\n}\r\n\r\n\r\n/// @dev Digit verification for proposers\r\nfunction validDigitsProblem(uint[9][9] calldata _grid) public pure returns (bool valid)\r\n{   \r\n    for(uint i = 0; i < 9; i++)\r\n    {   \r\n        for(uint j = 0; j < 9; j++)\r\n        {\r\n            if (_grid[i][j] > 9)\r\n            {\r\n                return false;\r\n            }\r\n        }\r\n    }\r\n    return true;\r\n}\r\n\r\n/// @dev Digit verification for solvers\r\nfunction validDigitsSolution(uint[9][9] calldata _grid) public pure returns (bool valid)\r\n{   \r\n    for(uint i = 0; i < 9; i++)\r\n    {   \r\n        for(uint j = 0; j < 9; j++)\r\n        {\r\n            if (_grid[i][j]==0 || _grid[i][j] > 9)\r\n            {\r\n                return false;\r\n            }\r\n        }\r\n    }\r\n    return true;\r\n}\r\n  \r\n \r\n/// @dev Sudoku verification for both proposers and solvers\r\nfunction validSudoku(uint[9][9] calldata _grid) public pure returns (bool valid)\r\n{ \r\n    bool[10] memory unique;\r\n \r\n    //Check uniqueness in rows\r\n    for(uint i = 0; i < 9; i++)\r\n    {   for (uint j=1;j<10;j++){\r\n        unique[j]=false;   \r\n         }\r\n        for(uint j = 0; j < 9; j++)\r\n        {\r\n            uint current = _grid[i][j];\r\n            if (current!=0 && unique[current])\r\n            {\r\n                return false;\r\n            }\r\n            unique[current] = true;\r\n        }\r\n    }\r\n   \r\n    //Check uniqueness in columns\r\n    for(uint i = 0; i < 9; i++)\r\n    {\r\n        for (uint j=1;j<10;j++){\r\n        unique[j]=false;   \r\n         }\r\n        for(uint j = 0; j < 9; j++)\r\n        {\r\n \r\n            uint current = _grid[j][i];\r\n            if (current!=0 && unique[current])\r\n            {\r\n                return false;\r\n            }\r\n            unique[current] = true;\r\n        }\r\n    }\r\n\r\n    //Check uniqueness in sub-grids\r\n    for(uint i = 0; i < 7; i += 3)\r\n    {\r\n        for(uint j = 0; j < 7; j += 3)\r\n        {\r\n            for (uint k=1;k<10;k++){\r\n            unique[k]=false;   \r\n            }\r\n            // Traverse current block\r\n            for(uint k = 0; k < 3; k++)\r\n            {\r\n                for(uint l = 0; l < 3; l++)\r\n                {         \r\n                    // Stores current row number\r\n                    uint X = i + k;\r\n \r\n                    // Stores current column number\r\n                    uint Y = j + l;\r\n \r\n                    // Stores current value\r\n                    uint current = _grid[X][Y];\r\n \r\n                    // Check if current is duplicated\r\n                    if (current!=0 && unique[current])\r\n                    {\r\n                        return false;\r\n                    }\r\n                    unique[current] = true;\r\n                }\r\n            }\r\n        }\r\n    }\r\n \r\n    // If all conditions are atisfied\r\n    return true;\r\n}\r\n\r\n/// @dev Modifier for proposers\r\nmodifier OnlyIfValidProblem(uint[9][9] calldata _grid) {\r\n    require(validDigitsProblem(_grid));\r\n    require(validSudoku(_grid));\r\n    _;\r\n}\r\n\r\n\r\n/// @notice Submit function for proposers\r\nfunction submitProblem(uint[9][9] calldata _grid) public payable \r\nOnlyIfPaidEnough() \r\nOnlyIfValidProblem(_grid)\r\nwhenNotPaused\r\nreturns (uint _id)\r\n{   \r\n\r\n\r\n_id= sudokus[msg.sender].length;\r\nsudokus[msg.sender].push(Sudoku({\r\ngrid: _grid, \r\ncreationTime:block.timestamp,\r\nsolved: false, \r\nsolver: payable(address(0)),\r\nvalue:msg.value\r\n}));\r\nemit sudokuCreated(msg.sender, _id);\r\nreturn _id;\r\n}\r\n\r\n\r\n\r\n/// @dev Checks that solution if for the right problem\r\nfunction rightPuzzle(uint[9][9] memory _problem, uint[9][9] calldata _solution) public pure returns (bool valid)\r\n{   \r\n    for(uint i = 0; i < 9; i++)\r\n    {   \r\n        for(uint j = 0; j < 9; j++)\r\n        {\r\n            if (_problem[i][j] !=0 && _solution[i][j]!=_problem[i][j])\r\n            {\r\n                return false;\r\n            }\r\n        }\r\n    }\r\n    return true;\r\n}\r\n\r\n\r\n/// @dev Checks deadline\r\nmodifier OnlyIfStillOpen(address proposer, uint index) {\r\n    require(sudokus[proposer][index].solved==false &&block.timestamp<=sudokus[proposer][index].creationTime+deadline);\r\n    _;\r\n}\r\n\r\n/// @dev Checks that sudoku hasn't been already solved\r\nmodifier OnlyIfNotSolved(address proposer, uint index) {\r\n    require(sudokus[proposer][index].solved==false &&block.timestamp>sudokus[proposer][index].creationTime+deadline);\r\n    _;\r\n}\r\n\r\n/// @dev Payment modifier\r\nmodifier OnlyIfPaidEnough() {\r\n    require(msg.value==fee);\r\n    _;\r\n}\r\n\r\n/// @dev Digit modifier for solutions\r\nmodifier OnlyIfValidDigitsSolution(uint[9][9] calldata _grid) {\r\n    require(validDigitsSolution(_grid));\r\n    _;\r\n}\r\n\r\n/**\r\n@dev The submitSolution function. We want to allow wrong submissions to collect fees,\r\nwe just verify that they are not trivially wrong with modifier OnlyIfValidDigitsSolution()\r\n*/\r\nfunction submitSolution(address proposer, uint index, uint[9][9] calldata _solution) public payable\r\nOnlyIfStillOpen(proposer,index)\r\nOnlyIfPaidEnough()\r\nOnlyIfValidDigitsSolution(_solution)\r\n{  \r\nemit solutionSubmitted(msg.sender, proposer, index);\r\nsudokus[proposer][index].value+=msg.value;\r\nif(rightPuzzle(sudokus[proposer][index].grid,_solution) && validSudoku(_solution)){\r\nsudokus[proposer][index].solved=true;\r\nsudokus[proposer][index].solver=payable(msg.sender);\r\nemit sudokuSolved(msg.sender, proposer, index, sudokus[proposer][index].value);\r\nuint _value=sudokus[proposer][index].value; \r\nsudokus[proposer][index].value=0;\r\n \r\n(bool sent, ) = msg.sender.call{value: _value}(\"\");\r\n        require(sent, \"Failed to send Ether\");\r\n }\r\n \r\n}\r\n\r\n\r\n//@notice Proposers can withdraw the value held in their Sudoku if no one could solve it\r\nfunction withdrawValue(uint index) public \r\nOnlyIfNotSolved(msg.sender,index)\r\nwhenNotPaused\r\n{   \r\nuint _value=sudokus[msg.sender][index].value; \r\nsudokus[msg.sender][index].value=0;\r\nsudokus[msg.sender][index].solved=true;\r\nsudokus[msg.sender][index].solver=payable(msg.sender);\r\nemit sudokuSolved(msg.sender, msg.sender, index, _value);\r\n(bool sent, ) = msg.sender.call{value: _value}(\"\");\r\n        require(sent, \"Failed to send Ether\");\r\n}\r\n}\r\n\r\n",
  "sourcePath": "/home/gerald/web3/truffle-sprint-4/contracts/SudokuMarketplace.sol",
  "compiler": {
    "name": "solc",
    "version": "0.8.14+commit.80d49f37.Emscripten.clang"
  },
  "schemaVersion": "3.4.7",
  "updatedAt": "2022-06-14T03:11:52.149Z",
  "networkType": "ethereum",
  "devdoc": {
    "events": {
      "solutionSubmitted(address,address,uint256)": {
        "details": "Solution submission event "
      },
      "sudokuCreated(address,uint256)": {
        "details": "Sudoku creation event   "
      },
      "sudokuSolved(address,address,uint256,uint256)": {
        "details": "Sudoku solution event "
      }
    },
    "kind": "dev",
    "methods": {
      "owner()": {
        "details": "Returns the address of the current owner."
      },
      "paused()": {
        "details": "Returns true if the contract is paused, and false otherwise."
      },
      "renounceOwnership()": {
        "details": "Leaves the contract without owner. It will not be possible to call `onlyOwner` functions anymore. Can only be called by the current owner. NOTE: Renouncing ownership will leave the contract without an owner, thereby removing any functionality that is only available to the owner."
      },
      "rightPuzzle(uint256[9][9],uint256[9][9])": {
        "details": "Checks that solution if for the right problem"
      },
      "submitSolution(address,uint256,uint256[9][9])": {
        "details": "The submitSolution function. We want to allow wrong submissions to collect fees, we just verify that they are not trivially wrong with modifier OnlyIfValidDigitsSolution()"
      },
      "togglePause()": {
        "details": "Toggle pause boolean "
      },
      "transferOwnership(address)": {
        "details": "Transfers ownership of the contract to a new account (`newOwner`). Can only be called by the current owner."
      },
      "validDigitsProblem(uint256[9][9])": {
        "details": "Digit verification for proposers"
      },
      "validDigitsSolution(uint256[9][9])": {
        "details": "Digit verification for solvers"
      },
      "validSudoku(uint256[9][9])": {
        "details": "Sudoku verification for both proposers and solvers"
      }
    },
    "stateVariables": {
      "sudokus": {
        "details": "Mapping proposers with an array of their proposed Sudokus"
      }
    },
    "version": 1
  },
  "userdoc": {
    "kind": "user",
    "methods": {
      "deadline()": {
        "notice": "Time-window to submit a solution from the time a Sudoku grid is created"
      },
      "fee()": {
        "notice": "Fee to be paid by solvers"
      },
      "submitProblem(uint256[9][9])": {
        "notice": "Submit function for proposers"
      }
    },
    "version": 1
  }
}